{
  "contractName": "TodoList",
  "abi": [
    {
      "inputs": [],
      "payable": false,
      "stateMutability": "nonpayable",
      "type": "constructor"
    },
    {
      "anonymous": false,
      "inputs": [
        {
          "indexed": false,
          "internalType": "uint256",
          "name": "id",
          "type": "uint256"
        },
        {
          "indexed": false,
          "internalType": "bool",
          "name": "completed",
          "type": "bool"
        }
      ],
      "name": "TaskCompleted",
      "type": "event"
    },
    {
      "anonymous": false,
      "inputs": [
        {
          "indexed": false,
          "internalType": "uint256",
          "name": "id",
          "type": "uint256"
        },
        {
          "indexed": false,
          "internalType": "string",
          "name": "content",
          "type": "string"
        },
        {
          "indexed": false,
          "internalType": "bool",
          "name": "completed",
          "type": "bool"
        }
      ],
      "name": "TaskCreated",
      "type": "event"
    },
    {
      "constant": true,
      "inputs": [],
      "name": "taskCount",
      "outputs": [
        {
          "internalType": "uint256",
          "name": "",
          "type": "uint256"
        }
      ],
      "payable": false,
      "stateMutability": "view",
      "type": "function"
    },
    {
      "constant": true,
      "inputs": [
        {
          "internalType": "uint256",
          "name": "",
          "type": "uint256"
        }
      ],
      "name": "tasks",
      "outputs": [
        {
          "internalType": "uint256",
          "name": "id",
          "type": "uint256"
        },
        {
          "internalType": "string",
          "name": "content",
          "type": "string"
        },
        {
          "internalType": "bool",
          "name": "completed",
          "type": "bool"
        }
      ],
      "payable": false,
      "stateMutability": "view",
      "type": "function"
    },
    {
      "constant": false,
      "inputs": [
        {
          "internalType": "string",
          "name": "_content",
          "type": "string"
        }
      ],
      "name": "createTask",
      "outputs": [],
      "payable": false,
      "stateMutability": "nonpayable",
      "type": "function"
    },
    {
      "constant": false,
      "inputs": [
        {
          "internalType": "uint256",
          "name": "_id",
          "type": "uint256"
        }
      ],
      "name": "toggleCompleted",
      "outputs": [],
      "payable": false,
      "stateMutability": "nonpayable",
      "type": "function"
    },
    {
      "constant": false,
      "inputs": [
        {
          "internalType": "uint256",
          "name": "_id",
          "type": "uint256"
        }
      ],
      "name": "getTask",
      "outputs": [
        {
          "components": [
            {
              "internalType": "uint256",
              "name": "id",
              "type": "uint256"
            },
            {
              "internalType": "string",
              "name": "content",
              "type": "string"
            },
            {
              "internalType": "bool",
              "name": "completed",
              "type": "bool"
            }
          ],
          "internalType": "struct TodoList.Task",
          "name": "",
          "type": "tuple"
        }
      ],
      "payable": false,
      "stateMutability": "nonpayable",
      "type": "function"
    }
  ],
  "bytecode": "0x6080604052600080553480156200001557600080fd5b506200005c6040518060400160405280600d81526020017f4d79206669727374207461736b000000000000000000000000000000000000008152506200006260201b60201c565b62000305565b600080815480929190600101919050555060405180606001604052806000548152602001828152602001600015158152506001600080548152602001908152602001600020600082015181600001556020820151816001019080519060200190620000cf92919062000136565b5060408201518160020160006101000a81548160ff0219169083151502179055509050507f05d0fb833127fc08168556d0e7ca9554fc3f6bc843b3b7d2bf1c35aea6bab6606000548260006040516200012b9392919062000248565b60405180910390a150565b828054600181600116156101000203166002900490600052602060002090601f016020900481019282601f106200017957805160ff1916838001178555620001aa565b82800160010185558215620001aa579182015b82811115620001a95782518255916020019190600101906200018c565b5b509050620001b99190620001bd565b5090565b620001e291905b80821115620001de576000816000905550600101620001c4565b5090565b90565b620001f081620002a8565b82525050565b600062000203826200028c565b6200020f818562000297565b935062000221818560208601620002be565b6200022c81620002f4565b840191505092915050565b6200024281620002b4565b82525050565b60006060820190506200025f600083018662000237565b8181036020830152620002738185620001f6565b9050620002846040830184620001e5565b949350505050565b600081519050919050565b600082825260208201905092915050565b60008115159050919050565b6000819050919050565b60005b83811015620002de578082015181840152602081019050620002c1565b83811115620002ee576000848401525b50505050565b6000601f19601f8301169050919050565b610a5880620003156000396000f3fe608060405234801561001057600080fd5b50600436106100575760003560e01c8063111002aa1461005c5780631d65e77e14610078578063455f5024146100a85780638d977672146100c4578063b6cb58a5146100f6575b600080fd5b61007660048036036100719190810190610681565b610114565b005b610092600480360361008d91908101906106c2565b6101e4565b60405161009f9190610822565b60405180910390f35b6100c260048036036100bd91908101906106c2565b6102d8565b005b6100de60048036036100d991908101906106c2565b61047b565b6040516100ed939291906108c6565b60405180910390f35b6100fe61054a565b60405161010b9190610844565b60405180910390f35b60008081548092919060010191905055506040518060600160405280600054815260200182815260200160001515815250600160008054815260200190815260200160002060008201518160000155602082015181600101908051906020019061017f929190610550565b5060408201518160020160006101000a81548160ff0219169083151502179055509050507f05d0fb833127fc08168556d0e7ca9554fc3f6bc843b3b7d2bf1c35aea6bab6606000548260006040516101d993929190610888565b60405180910390a150565b6101ec6105d0565b6001600083815260200190815260200160002060405180606001604052908160008201548152602001600182018054600181600116156101000203166002900480601f0160208091040260200160405190810160405280929190818152602001828054600181600116156101000203166002900480156102ad5780601f10610282576101008083540402835291602001916102ad565b820191906000526020600020905b81548152906001019060200180831161029057829003601f168201915b505050505081526020016002820160009054906101000a900460ff1615151515815250509050919050565b6102e06105d0565b6001600083815260200190815260200160002060405180606001604052908160008201548152602001600182018054600181600116156101000203166002900480601f0160208091040260200160405190810160405280929190818152602001828054600181600116156101000203166002900480156103a15780601f10610376576101008083540402835291602001916103a1565b820191906000526020600020905b81548152906001019060200180831161038457829003601f168201915b505050505081526020016002820160009054906101000a900460ff16151515158152505090508060400151158160400190151590811515815250508060016000848152602001908152602001600020600082015181600001556020820151816001019080519060200190610416929190610550565b5060408201518160020160006101000a81548160ff0219169083151502179055509050507fe21fa966ca5cd02748c0752352d18c48165e61cb55b4c29cccf924b5a95fcff182826040015160405161046f92919061085f565b60405180910390a15050565b6001602052806000526040600020600091509050806000015490806001018054600181600116156101000203166002900480601f01602080910402602001604051908101604052809291908181526020018280546001816001161561010002031660029004801561052d5780601f106105025761010080835404028352916020019161052d565b820191906000526020600020905b81548152906001019060200180831161051057829003601f168201915b5050505050908060020160009054906101000a900460ff16905083565b60005481565b828054600181600116156101000203166002900490600052602060002090601f016020900481019282601f1061059157805160ff19168380011785556105bf565b828001600101855582156105bf579182015b828111156105be5782518255916020019190600101906105a3565b5b5090506105cc91906105f3565b5090565b604051806060016040528060008152602001606081526020016000151581525090565b61061591905b808211156106115760008160009055506001016105f9565b5090565b90565b600082601f83011261062957600080fd5b813561063c61063782610931565b610904565b9150808252602083016020830185838301111561065857600080fd5b6106638382846109ab565b50505092915050565b60008135905061067b816109fe565b92915050565b60006020828403121561069357600080fd5b600082013567ffffffffffffffff8111156106ad57600080fd5b6106b984828501610618565b91505092915050565b6000602082840312156106d457600080fd5b60006106e28482850161066c565b91505092915050565b6106f481610995565b82525050565b61070381610995565b82525050565b600061071482610968565b61071e8185610984565b935061072e8185602086016109ba565b610737816109ed565b840191505092915050565b600061074d8261095d565b6107578185610973565b93506107678185602086016109ba565b610770816109ed565b840191505092915050565b60006107868261095d565b6107908185610984565b93506107a08185602086016109ba565b6107a9816109ed565b840191505092915050565b60006060830160008301516107cc6000860182610804565b50602083015184820360208601526107e48282610742565b91505060408301516107f960408601826106eb565b508091505092915050565b61080d816109a1565b82525050565b61081c816109a1565b82525050565b6000602082019050818103600083015261083c81846107b4565b905092915050565b60006020820190506108596000830184610813565b92915050565b60006040820190506108746000830185610813565b61088160208301846106fa565b9392505050565b600060608201905061089d6000830186610813565b81810360208301526108af8185610709565b90506108be60408301846106fa565b949350505050565b60006060820190506108db6000830186610813565b81810360208301526108ed818561077b565b90506108fc60408301846106fa565b949350505050565b6000604051905081810181811067ffffffffffffffff8211171561092757600080fd5b8060405250919050565b600067ffffffffffffffff82111561094857600080fd5b601f19601f8301169050602081019050919050565b600081519050919050565b600081519050919050565b600082825260208201905092915050565b600082825260208201905092915050565b60008115159050919050565b6000819050919050565b82818337600083830152505050565b60005b838110156109d85780820151818401526020810190506109bd565b838111156109e7576000848401525b50505050565b6000601f19601f8301169050919050565b610a07816109a1565b8114610a1257600080fd5b5056fea365627a7a72315820ac3f16bcefeda81eb58bee9d07dccbc53937dacb3f3312d506beb6b91d8839d16c6578706572696d656e74616cf564736f6c63430005100040",
  "source": "pragma solidity ^0.5.0;\r\npragma experimental ABIEncoderV2;\r\n\r\ncontract TodoList {\r\n    uint public taskCount = 0;\r\n\r\n    struct Task {\r\n        uint id;\r\n        string content;\r\n        bool completed;\r\n    }\r\n\r\n    mapping(uint => Task) public tasks;\r\n\r\n    event TaskCreated(\r\n        uint id,\r\n        string content,\r\n        bool completed\r\n    );\r\n\r\n    event TaskCompleted(\r\n        uint id,\r\n        bool completed\r\n    );\r\n\r\n    constructor() public {\r\n        createTask(\"My first task\");\r\n    }\r\n\r\n    function createTask(string memory _content) public {\r\n        taskCount++;\r\n        tasks[taskCount] = Task(taskCount, _content, false);\r\n        emit TaskCreated(taskCount, _content, false);\r\n    }\r\n\r\n    function toggleCompleted(uint _id) public {\r\n        Task memory _task = tasks[_id];\r\n        _task.completed = !_task.completed;\r\n        tasks[_id] = _task;\r\n        emit TaskCompleted(_id, _task.completed);\r\n    }\r\n\r\n    function getTask(uint _id) public returns(Task memory){\r\n        return tasks[_id];\r\n    }\r\n}",
  "sourcePath": "C:/Users/marti/Documents/GitHub/blockchain/smart-contracts/contracts/TodoList.sol",
  "compiler": {
    "name": "solc",
    "version": "0.5.16+commit.9c3226ce.Emscripten.clang"
  },
  "schemaVersion": "3.4.1",
  "updatedAt": "2021-10-20T07:03:39.484Z",
  "networkType": "ethereum",
  "devdoc": {
    "methods": {}
  },
  "userdoc": {
    "methods": {}
  }
}